{
  "_format": "hh-sol-artifact-1",
  "contractName": "PollutionInternalContract",
  "sourceName": "contracts/PollutionInternalContract.sol",
  "abi": [
    {
      "constant": true,
      "inputs": [],
      "name": "showAQI",
      "outputs": [
        {
          "name": "",
          "type": "uint256"
        }
      ],
      "payable": false,
      "stateMutability": "view",
      "type": "function"
    },
    {
      "constant": false,
      "inputs": [
        {
          "name": "latitude",
          "type": "string"
        },
        {
          "name": "longitude",
          "type": "string"
        }
      ],
      "name": "testMyFunc",
      "outputs": [
        {
          "name": "requestId",
          "type": "bytes32"
        }
      ],
      "payable": false,
      "stateMutability": "nonpayable",
      "type": "function"
    },
    {
      "constant": true,
      "inputs": [],
      "name": "oraclefee",
      "outputs": [
        {
          "name": "",
          "type": "uint256"
        }
      ],
      "payable": false,
      "stateMutability": "view",
      "type": "function"
    },
    {
      "constant": false,
      "inputs": [],
      "name": "withdrawPli",
      "outputs": [],
      "payable": false,
      "stateMutability": "nonpayable",
      "type": "function"
    },
    {
      "constant": false,
      "inputs": [
        {
          "name": "_requestId",
          "type": "bytes32"
        },
        {
          "name": "_currentval",
          "type": "uint256"
        }
      ],
      "name": "fulfill",
      "outputs": [],
      "payable": false,
      "stateMutability": "nonpayable",
      "type": "function"
    },
    {
      "constant": true,
      "inputs": [],
      "name": "currentValue",
      "outputs": [
        {
          "name": "",
          "type": "uint256"
        }
      ],
      "payable": false,
      "stateMutability": "view",
      "type": "function"
    },
    {
      "constant": false,
      "inputs": [],
      "name": "renounceOwnership",
      "outputs": [],
      "payable": false,
      "stateMutability": "nonpayable",
      "type": "function"
    },
    {
      "constant": true,
      "inputs": [],
      "name": "oracle",
      "outputs": [
        {
          "name": "",
          "type": "address"
        }
      ],
      "payable": false,
      "stateMutability": "view",
      "type": "function"
    },
    {
      "constant": false,
      "inputs": [
        {
          "name": "_caller",
          "type": "address"
        },
        {
          "name": "latitude",
          "type": "string"
        },
        {
          "name": "longitude",
          "type": "string"
        }
      ],
      "name": "requestAQIData",
      "outputs": [
        {
          "name": "requestId",
          "type": "bytes32"
        }
      ],
      "payable": false,
      "stateMutability": "nonpayable",
      "type": "function"
    },
    {
      "constant": true,
      "inputs": [],
      "name": "latestTimestamp",
      "outputs": [
        {
          "name": "",
          "type": "uint256"
        }
      ],
      "payable": false,
      "stateMutability": "view",
      "type": "function"
    },
    {
      "constant": true,
      "inputs": [],
      "name": "owner",
      "outputs": [
        {
          "name": "",
          "type": "address"
        }
      ],
      "payable": false,
      "stateMutability": "view",
      "type": "function"
    },
    {
      "constant": true,
      "inputs": [
        {
          "name": "",
          "type": "address"
        }
      ],
      "name": "plidbs",
      "outputs": [
        {
          "name": "depositor",
          "type": "address"
        },
        {
          "name": "totalcredits",
          "type": "uint256"
        }
      ],
      "payable": false,
      "stateMutability": "view",
      "type": "function"
    },
    {
      "constant": true,
      "inputs": [],
      "name": "getPluginToken",
      "outputs": [
        {
          "name": "",
          "type": "address"
        }
      ],
      "payable": false,
      "stateMutability": "view",
      "type": "function"
    },
    {
      "constant": true,
      "inputs": [],
      "name": "jobId",
      "outputs": [
        {
          "name": "",
          "type": "string"
        }
      ],
      "payable": false,
      "stateMutability": "view",
      "type": "function"
    },
    {
      "constant": false,
      "inputs": [
        {
          "name": "_value",
          "type": "uint256"
        }
      ],
      "name": "depositPLI",
      "outputs": [
        {
          "name": "",
          "type": "bool"
        }
      ],
      "payable": false,
      "stateMutability": "nonpayable",
      "type": "function"
    },
    {
      "constant": false,
      "inputs": [
        {
          "name": "_requestId",
          "type": "bytes32"
        },
        {
          "name": "_payment",
          "type": "uint256"
        },
        {
          "name": "_callbackFunctionId",
          "type": "bytes4"
        },
        {
          "name": "_expiration",
          "type": "uint256"
        }
      ],
      "name": "cancelRequest",
      "outputs": [],
      "payable": false,
      "stateMutability": "nonpayable",
      "type": "function"
    },
    {
      "constant": false,
      "inputs": [
        {
          "name": "_newOwner",
          "type": "address"
        }
      ],
      "name": "transferOwnership",
      "outputs": [],
      "payable": false,
      "stateMutability": "nonpayable",
      "type": "function"
    },
    {
      "inputs": [
        {
          "name": "_pli",
          "type": "address"
        },
        {
          "name": "_oracle",
          "type": "address"
        },
        {
          "name": "_jobid",
          "type": "string"
        }
      ],
      "payable": false,
      "stateMutability": "nonpayable",
      "type": "constructor"
    },
    {
      "anonymous": false,
      "inputs": [
        {
          "indexed": true,
          "name": "requestId",
          "type": "bytes32"
        },
        {
          "indexed": true,
          "name": "currentVal",
          "type": "uint256"
        }
      ],
      "name": "RequestFulfilled",
      "type": "event"
    },
    {
      "anonymous": false,
      "inputs": [
        {
          "indexed": true,
          "name": "requester",
          "type": "address"
        },
        {
          "indexed": true,
          "name": "jobId",
          "type": "bytes32"
        },
        {
          "indexed": true,
          "name": "requestId",
          "type": "bytes32"
        }
      ],
      "name": "requestCreated",
      "type": "event"
    },
    {
      "anonymous": false,
      "inputs": [
        {
          "indexed": true,
          "name": "jobId",
          "type": "bytes32"
        },
        {
          "indexed": true,
          "name": "requestId",
          "type": "bytes32"
        }
      ],
      "name": "requestCreatedTest",
      "type": "event"
    },
    {
      "anonymous": false,
      "inputs": [
        {
          "indexed": true,
          "name": "previousOwner",
          "type": "address"
        }
      ],
      "name": "OwnershipRenounced",
      "type": "event"
    },
    {
      "anonymous": false,
      "inputs": [
        {
          "indexed": true,
          "name": "previousOwner",
          "type": "address"
        },
        {
          "indexed": true,
          "name": "newOwner",
          "type": "address"
        }
      ],
      "name": "OwnershipTransferred",
      "type": "event"
    },
    {
      "anonymous": false,
      "inputs": [
        {
          "indexed": true,
          "name": "id",
          "type": "bytes32"
        }
      ],
      "name": "PluginRequested",
      "type": "event"
    },
    {
      "anonymous": false,
      "inputs": [
        {
          "indexed": true,
          "name": "id",
          "type": "bytes32"
        }
      ],
      "name": "PluginFulfilled",
      "type": "event"
    },
    {
      "anonymous": false,
      "inputs": [
        {
          "indexed": true,
          "name": "id",
          "type": "bytes32"
        }
      ],
      "name": "PluginCancelled",
      "type": "event"
    }
  ],
  "bytecode": "0x608060405260016004553480156200001657600080fd5b5060405162001aa038038062001aa0833981016040908152815160208301519183015160068054600160a060020a0319163317905590920162000062836401000000006200009c810204565b60078054600160a060020a031916600160a060020a038416179055805162000092906008906020840190620000be565b5050505062000163565b60028054600160a060020a031916600160a060020a0392909216919091179055565b828054600181600116156101000203166002900490600052602060002090601f016020900481019282601f106200010157805160ff191683800117855562000131565b8280016001018555821562000131579182015b828111156200013157825182559160200191906001019062000114565b506200013f92915062000143565b5090565b6200016091905b808211156200013f57600081556001016200014a565b90565b61192d80620001736000396000f3006080604052600436106100d75763ffffffff60e060020a6000350416631893eb1481146100dc57806322173b921461010357806335342f4c1461019a57806337fccd30146101af5780634357855e146101c6578063698996f8146101e1578063715018a6146101f65780637dc0d1d01461020b578063818c87d11461023c5780638205bf6a146102e15780638da5cb5b146102f6578063a2e36c5f1461030b578063a4b6f67e1461034f578063c2939d9714610364578063d378d5eb146103ee578063ec65d0f81461041a578063f2fde38b14610445575b600080fd5b3480156100e857600080fd5b506100f1610466565b60408051918252519081900360200190f35b34801561010f57600080fd5b506040805160206004803580820135601f81018490048402850184019095528484526100f194369492936024939284019190819084018382808284375050604080516020601f89358b018035918201839004830284018301909452808352979a99988101979196509182019450925082915084018382808284375094975061046c9650505050505050565b3480156101a657600080fd5b506100f1610695565b3480156101bb57600080fd5b506101c461069b565b005b3480156101d257600080fd5b506101c4600435602435610829565b3480156101ed57600080fd5b506100f1610943565b34801561020257600080fd5b506101c4610949565b34801561021757600080fd5b506102206109b7565b60408051600160a060020a039092168252519081900360200190f35b34801561024857600080fd5b5060408051602060046024803582810135601f81018590048502860185019096528585526100f1958335600160a060020a031695369560449491939091019190819084018382808284375050604080516020601f89358b018035918201839004830284018301909452808352979a9998810197919650918201945092508291508401838280828437509497506109c69650505050505050565b3480156102ed57600080fd5b506100f1610c24565b34801561030257600080fd5b50610220610c2a565b34801561031757600080fd5b5061032c600160a060020a0360043516610c39565b60408051600160a060020a03909316835260208301919091528051918290030190f35b34801561035b57600080fd5b50610220610c5e565b34801561037057600080fd5b50610379610c6d565b6040805160208082528351818301528351919283929083019185019080838360005b838110156103b357818101518382015260200161039b565b50505050905090810190601f1680156103e05780820380516001836020036101000a031916815260200191505b509250505060405180910390f35b3480156103fa57600080fd5b50610406600435610cfb565b604080519115158252519081900360200190f35b34801561042657600080fd5b506101c4600435602435600160e060020a031960443516606435610e94565b34801561045157600080fd5b506101c4600160a060020a0360043516610ebd565b60095490565b60008061047761189d565b600654600160a060020a0316331461048e57600080fd5b6008805460408051602060026001851615610100026000190190941693909304601f8101849004840282018401909252818152600095506105539361052c93919290918301828280156105225780601f106104f757610100808354040283529160200191610522565b820191906000526020600020905b81548152906001019060200180831161050557829003601f168201915b5050505050610edd565b307f4357855e00000000000000000000000000000000000000000000000000000000610f01565b60408051808201909152600481527f5f6c617400000000000000000000000000000000000000000000000000000000602082015290915061059c9082908763ffffffff610f2c16565b60408051808201909152600481527f5f6c6f6e0000000000000000000000000000000000000000000000000000000060208201526105e29082908663ffffffff610f2c16565b42600a556007546105fd90600160a060020a03168284610f5b565b60088054604080516020601f60026101006001871615026000190190951694909404938401819004810282018101909252828152939650869361066493909290918301828280156105225780601f106104f757610100808354040283529160200191610522565b6040517feafd6b8e34637ca199864ee18f22fc46cbc730739912f5b54501a2a9e57e807090600090a3505092915050565b600b5481565b600654600090600160a060020a031633146106b557600080fd5b6106bd6111f8565b604080517f70a082310000000000000000000000000000000000000000000000000000000081523060048201529051919250600160a060020a0383169163a9059cbb91339184916370a082319160248083019260209291908290030181600087803b15801561072b57600080fd5b505af115801561073f573d6000803e3d6000fd5b505050506040513d602081101561075557600080fd5b50516040805160e060020a63ffffffff8616028152600160a060020a03909316600484015260248301919091525160448083019260209291908290030181600087803b1580156107a457600080fd5b505af11580156107b8573d6000803e3d6000fd5b505050506040513d60208110156107ce57600080fd5b50511515610826576040805160e560020a62461bcd02815260206004820152601260248201527f556e61626c6520746f207472616e736665720000000000000000000000000000604482015290519081900360640190fd5b50565b6000828152600560205260409020548290600160a060020a031633146108bf576040805160e560020a62461bcd02815260206004820152602860248201527f536f75726365206d75737420626520746865206f7261636c65206f662074686560448201527f2072657175657374000000000000000000000000000000000000000000000000606482015290519081900360840190fd5b600081815260056020526040808220805473ffffffffffffffffffffffffffffffffffffffff191690555182917fa40ad10b942505047c532a7399bf5eac2768b11b7155b40ec80309aea567f99891a2604051829084907f1ca8663227a7fe9919713a01d344afbb434e234f35a3e540a6ad924f88771f3890600090a35060095550565b60095481565b600654600160a060020a0316331461096057600080fd5b600654604051600160a060020a03909116907ff8df31144d9c2f0f6b59d69b8b98abd5459d07f2742c4df920b25aae33c6482090600090a26006805473ffffffffffffffffffffffffffffffffffffffff19169055565b600754600160a060020a031681565b60008060006109d361189d565b6109dc87611207565b600160a060020a0388166000908152600c60205260409020600101549093509150828211610a54576040805160e560020a62461bcd02815260206004820152601560248201527f4e4f5f53554646494349454e545f435245444954530000000000000000000000604482015290519081900360640190fd5b600160a060020a0387166000908152600c6020908152604091829020858503600191820155600880548451600293821615610100026000190190911692909204601f8101849004840283018401909452838252610ad59361052c938301828280156105225780601f106104f757610100808354040283529160200191610522565b60408051808201909152600481527f5f6c6174000000000000000000000000000000000000000000000000000000006020820152909150610b1e9082908863ffffffff610f2c16565b60408051808201909152600481527f5f6c6f6e000000000000000000000000000000000000000000000000000000006020820152610b649082908763ffffffff610f2c16565b600754610b7b90600160a060020a03168285610f5b565b42600a5560088054604080516020601f600261010060018716150260001901909516949094049384018190048102820181019092528281529397508793610be693909290918301828280156105225780601f106104f757610100808354040283529160200191610522565b604051600160a060020a038a16907f7f3df4038a13e7b83557e5a0ebf67fec07391a522319ab42e81255e88de18ffb90600090a45050509392505050565b600a5481565b600654600160a060020a031681565b600c6020526000908152604090208054600190910154600160a060020a039091169082565b6000610c686111f8565b905090565b6008805460408051602060026001851615610100026000190190941693909304601f81018490048402820184019092528181529291830182828015610cf35780601f10610cc857610100808354040283529160200191610cf3565b820191906000526020600020905b815481529060010190602001808311610cd657829003601f168201915b505050505081565b600080610d066118d2565b600068056bc75e2d63100000851115610d69576040805160e560020a62461bcd02815260206004820152601960248201527f4e4f545f4d4f52455f5448414e5f3130305f414c4c4f57454400000000000000604482015290519081900360640190fd5b610d716111f8565b604080517f23b872dd000000000000000000000000000000000000000000000000000000008152336004820152306024820152604481018890529051919450600160a060020a038516916323b872dd916064808201926020929091908290030181600087803b158015610de357600080fd5b505af1158015610df7573d6000803e3d6000fd5b505050506040513d6020811015610e0d57600080fd5b5050336000818152600c60208181526040808420815180830183528154600160a060020a0381811683526001808501805494880185905286518088019097528a87529e9093018587019081529890975294909352905190931673ffffffffffffffffffffffffffffffffffffffff1990921691909117909155905190955550929392505050565b600654600160a060020a03163314610eab57600080fd5b610eb784848484611252565b50505050565b600654600160a060020a03163314610ed457600080fd5b61082681611350565b805160009082901515610ef35760009150610efb565b602083015191505b50919050565b610f0961189d565b610f1161189d565b610f238186868663ffffffff6113ce16565b95945050505050565b6080830151610f41908363ffffffff61140b16565b6080830151610f56908263ffffffff61140b16565b505050565b6000306004546040516020018083600160a060020a0316600160a060020a03166c01000000000000000000000000028152601401828152602001925050506040516020818303038152906040526040518082805190602001908083835b60208310610fd75780518252601f199092019160209182019101610fb8565b51815160209384036101000a6000190180199092169116179052604080519290940182900390912060045460608a015260008181526005909252838220805473ffffffffffffffffffffffffffffffffffffffff1916600160a060020a038c1617905592519295508594507fa6745906207afb96a5801b8e5711fd7b74c5780ce893a973806e179d675bbe249350919050a2600254600160a060020a0316634000aea0858461108587611428565b6040518463ffffffff1660e060020a0281526004018084600160a060020a0316600160a060020a0316815260200183815260200180602001828103825283818151815260200191508051906020019080838360005b838110156110f25781810151838201526020016110da565b50505050905090810190601f16801561111f5780820380516001836020036101000a031916815260200191505b50945050505050602060405180830381600087803b15801561114057600080fd5b505af1158015611154573d6000803e3d6000fd5b505050506040513d602081101561116a57600080fd5b505115156111e8576040805160e560020a62461bcd02815260206004820152602360248201527f756e61626c6520746f207472616e73666572416e6443616c6c20746f206f726160448201527f636c650000000000000000000000000000000000000000000000000000000000606482015290519081900360840190fd5b6004805460010190559392505050565b600254600160a060020a031690565b600073ef0eef30a645aa9c39d4383321ccc0df906ff12c600160a060020a038316141561123d57655af3107a4000600b5561124a565b67016345785d8a0000600b555b5050600b5490565b600084815260056020526040808220805473ffffffffffffffffffffffffffffffffffffffff1981169091559051600160a060020a039091169186917f715822738dad692e521ebc0193d189bf23153eb1d4420173d6b30cd8add9f9a69190a2604080517f6ee4d5530000000000000000000000000000000000000000000000000000000081526004810187905260248101869052600160e060020a031985166044820152606481018490529051600160a060020a03831691636ee4d55391608480830192600092919082900301818387803b15801561133157600080fd5b505af1158015611345573d6000803e3d6000fd5b505050505050505050565b600160a060020a038116151561136557600080fd5b600654604051600160a060020a038084169216907f8be0079c531659141344cd1fd0a4f28419497f9722a3daafe3b4186f6b6457e090600090a36006805473ffffffffffffffffffffffffffffffffffffffff1916600160a060020a0392909216919091179055565b6113d661189d565b6113e6856080015161010061157f565b5050918352600160a060020a03166020830152600160e060020a031916604082015290565b61141882600383516115bf565b610f56828263ffffffff6116bc16565b8051602080830151604080850151606086810151608088015151935160006024820181815260448301829052606483018a9052600160a060020a0388166084840152600160e060020a0319861660a484015260c48301849052600160e48401819052610100610104850190815288516101248601528851969b7f40429946000000000000000000000000000000000000000000000000000000009b949a8b9a91999098909796939591949361014401918501908083838e5b838110156114f85781810151838201526020016114e0565b50505050905090810190601f1680156115255780820380516001836020036101000a031916815260200191505b5060408051601f198184030181529190526020810180517bffffffffffffffffffffffffffffffffffffffffffffffffffffffff16600160e060020a0319909d169c909c17909b5250989950505050505050505050919050565b6115876118e9565b602082061561159c5760208206602003820191505b506020808301829052604080518085526000815283019091019052815b92915050565b601781116115e1576115db8360ff8481166020021683176116dd565b50610f56565b60ff811161161557611602836018602060ff8616021763ffffffff6116dd16565b506115db8382600163ffffffff6116f516565b61ffff811161164a57611637836019602060ff8616021763ffffffff6116dd16565b506115db8382600263ffffffff6116f516565b63ffffffff81116116815761166e83601a602060ff8616021763ffffffff6116dd16565b506115db8382600463ffffffff6116f516565b67ffffffffffffffff8111610f56576116a983601b602060ff8616021763ffffffff6116dd16565b50610eb78382600863ffffffff6116f516565b6116c46118e9565b6116d683846000015151848551611716565b9392505050565b6116e56118e9565b6116d683846000015151846117cc565b6116fd6118e9565b61170e848560000151518585611817565b949350505050565b61171e6118e9565b60008060008551851115151561173357600080fd5b8760200151858801111561175d5761175d886117558a602001518a8901611875565b600202611886565b8751805188602083010194508089880111156117795788870182525b60208801935050505b602085106117a45781518352601f199094019360209283019290910190611782565b505181516020949094036101000a600019018019909116931692909217909152509192915050565b6117d46118e9565b602084015183106117f0576117f0848560200151600202611886565b835180516020858301018481538186141561180c576001820183525b509495945050505050565b61181f6118e9565b60008560200151858401111561183e5761183e86868501600202611886565b6001836101000a03905085518386820101858319825116178152815185880111156118695784870182525b50959695505050505050565b600081831115610efb5750816115b9565b8151611892838361157f565b50610eb783826116bc565b6040805160c0810182526000808252602082018190529181018290526060810191909152608081016118cd6118e9565b905290565b604080518082019091526000808252602082015290565b604080518082019091526060815260006020820152905600a165627a7a72305820cce3acad6d7e3621231d18a45856b642e541cdd7cfe7b1682364d8e710aa59c90029",
  "linkReferences": {},
  "deployedLinkReferences": {}
}